:02000000E12EEF
:1000060083160313141911281F301105F100710806
:10001600003A031D11280130F0001228F0010800F3
:0E002600831203136F088A006E088200080020
:10003400831203138C112208930037088316D60009
:10004400831238088316D700831239088316D80020
:1000540083123A088316D9008316141D5D2883126F
:100064003708380439043A0403195C2883165608FF
:10007400570458045904031D5328280884000430E5
:100084008000840A26088312EE0083162708831250
:10009400EF0013208A110A12013083120313F000B7
:1000A400A32801308316D602031CD702031CD802EE
:1000B400031CD9022E28831237088316D600831214
:1000C40038088316D700831239088316D8008312A0
:1000D4003A088316D90083128C199B2837083804F0
:1000E40039043A0403199A28831656085704580405
:1000F4005904031D91282808840004308000840AD0
:1001040026088312EE00831627088312EF001320BB
:100114008A110A12013083120313F000A32801305C
:100124008316D602031CD702031CD802031CD9026F
:100134006D288316111BA028F001A3281115023085
:04014400F0000800BF
:080148008316031311150800D2
:100150008312031337088316D800831238088316D6
:10016000D900831239088316DA0083123A088316FD
:10017000DB00D601D7015708123C031DC1285608E1
:100180008E3C031CCC28032070080319C828CC28F7
:10019000D60A0319D70ABB2812305702031DD228EA
:1001A0008F305602031CD7287B30F0000829111429
:1001B0008316111C072983123708380439043A04BE
:1001C000031906298316580859045A045B04031DB1
:1001D000FD282808840005308000840A2608831240
:1001E000EE00831627088312EF0013208A110A12EB
:1001F000013083120313F000082901308316D8025E
:10020000031CD902031CDA02031CDB02D828F0010C
:020210000800E4
:100212007B15FB1F13290130F300F201F101F001FC
:08022200FA0DF20CFF30080098
:10022A00F030831603135305D4005308D500D50DB7
:10023A005510D50D5510D50D5510D50D5510F0305A
:10024A00D505A82003207E308312A2001A2003209D
:10025A00520854048312A2002215A2151A20032060
:10026A001030FD00FD0B3729000052085404831298
:10027A00A200A2151A2003202130FD00FD0B4329FC
:10028A00520855048312A2002215A2151A2003202F
:10029A001030FD00FD0B4F2900005208550483124F
:0C02AA00A200A2151A200320A4200800C6
:0E02B600F201F101F001F801F301003008003F
:0802C400FA1FF21300300800DC
:1002CC00FB14FB1F7029FF30F300F200F100F0006B
:0802DC00FA0DF20CFF300800DE
:1002E400A0017208031D87297108F2007008F1004B
:1002F400F001A0157208031D87297108F200F101AD
:10030400A01120167208031995292008F302031D71
:10031400031C99290310F21B9D29F00DF10DF20D18
:10032400F30B8D2999290130FC005B21A0290230AF
:0E033400FC000921A0290430FC006221080011
:100342007C18D729FC18A8297C19F629A129A00113
:100352007208031DC8297108F2007008F1007808BC
:10036200F000F801A0157208031DC8297108F200F7
:100372007008F100F001A01120167208031DC829AF
:100382007108F200F101A01572080319EA29200888
:10039200F302031D031CEE290310F21BD729F80DEB
:1003A200F00DF10DF20DF30BCE29EE297B1B701C23
:1003B200F229F81FF229F00A0319F10A0319F20AC5
:1003C200031DF229F20CF10CF00CF30A0319F629C1
:1003D200F2290130FC005B21F9290230FC000921DD
:1003E200F9290430FC006221F9290830FC00662159
:0403F20000000800FF
:1003F60083160313D1015108D2005008D3001521EA
:100406005008013A031D112A0330FC009730FD0005
:0E041600FD0B0B2AFC0B0B2A00000000080057
:06042400FB15FF3008008B
:10042A00013083160313CF00322A4D08803ED000D4
:10043A00FB21422A4D08C03ED000FB21422A4D032F
:10044A00F0007008943ED000FB21422A4D03F000D0
:10045A007008D43ED000FB21422A4C08013A031905
:10046A001A2A4C08023A03191F2A4C08033A03199C
:10047A00242A4C08043A03192B2A4F08D2004E08A2
:06048A00D300152108005B
:100490008312031372087606A000F801F9017308AD
:1004A0007702031C6B2A7708FD007308F7007D08AC
:1004B000F3007608FD007208F6007D08F20075086A
:1004C000FD007108F5007D08F1007408FD0070085A
:1004D000F4007D08F00077080319E42A7208FA0096
:1004E000F217F61777087302F70003199E2A0830EF
:1004F0007702031C942AF7007408F9007508F400C9
:100500007608F500F60108307702031C942AF700FC
:100510007408F9007508F400F50108307702031C2F
:10052000942A7A08F200E42A770803199E2A031015
:10053000F60CF50CF40CF90CF70B972AA01FAB2A5C
:10054000F909F409F509F609F90A0319F40A031976
:10055000F50A0319F60A7908F80774080318740FE6
:10056000F00775080318750FF10776080318760F62
:10057000F207A01BC42A031CD42AF20CF10CF00CC5
:10058000F80CF30FD42AE02A0318D82AF809F00946
:10059000F109F209F80A0319F00A0319F10A03191B
:1005A000F20A8030FA06DC2A0130FC00A121E62A9A
:1005B0000230FC00A121E62A0430FC007221E62A68
:1005C0000830FC006621E62A0030FC00000008002C
:1005D0007B14FB1FF32AF201FA1FFF30F200F10037
:0A05E000F000FA0DF20CFF300800E5
:0C05EA00831203138030F606482208003C
:1005F60083120313FB017308031D77080319522B9B
:1006060072087606FA007708F3077E30031C0F2B74
:10061600F3020318552B122BF302031C582B7208F6
:10062600F8007108FC007008FD00F817F6170310B3
:10063600F201F101F0011830A0007D1C2C2B74088A
:10064600F00775080318750FF10776080318760F7B
:10065600F207F20CF10CF00CF80CFC0CFD0C03107C
:10066600A00B202BF21B3C2BF80DF00DF10DF20D1B
:10067600F3037B1B701C4E2BF81F4E2BF00A03193D
:10068600F10A0319F20A031D4E2BF20CF10CF00CC1
:10069600F30A0319552BFA1FF21300305A2B0130B7
:1006A6005B215A2B023066215A2B043009210000A7
:0206B60008003A
:1006B800033083160313AC000030AD000030AE00E9
:1006C8000030A830B2000030B3000030B400003071
:1006D8002830AF000430B0000030B1000030FD30E9
:1006E800A9000430AA002130AB0000301A30A30062
:1006F8000030A4002230A5000030A430A000003053
:10070800A1000030A20000301413941307168715B7
:08071800383083129400080040
:10072000831203137008F8007108F000F101F20160
:10073000F301FB01FC019630F300FA01F01FA62B38
:10074000F809F009F80A0319F00AFA177008F1001D
:0C0750007808F000F801F20172210800A6
:10075C00831603134908840000080319C12B4708AA
:10076C00CC004808CD00490884000008CE001522B2
:08077C00C80AC90AAE2B0800EF
:1007840083120313FA017308031D7A147708031DF7
:10079400FA147A0803190E2C033A0319D92B7A1880
:1007A400D62BF61F0C2C0A2CF21F0A2C0C2C7208C8
:1007B4008039FA00F21376088039F6137A060319A1
:1007C400E72B7A0803190A2C0C2C770873020319F7
:1007D400EE2B031C022C062C760872020319F52B4F
:1007E400031C022C062C750871020319FC2B031C34
:1007F400022C062C7408700203190E2C0318062C04
:10080400FA0803190C2C0A2CFA0803190A2C0C2CCC
:10081400031408000310080003140315080008005B
:10082400831203137008F8007108F000F101F2015B
:10083400F301FB01FC019630F300FA017008F100AA
:0C0844007808F000F801F20172210800B1
:100850008312031337088316C700831238088316E0
:10086000C800831239088316C90083123A08831618
:10087000CA0091148316911C662C83123708380421
:1008800039043A040319652C8316470848044904BF
:100890004A04031D5B2C2808840006308000840A6B
:1008A00026088312EE00831627088312EF00132018
:1008B0008A110A12662C013083160313C702031C27
:0E08C000C802031CC902031CCA023A2C08001D
:1008CE0083160313C701A82003207E308312A200D3
:1008DE001A20093083120313FD00FD0B742C000047
:1008EE0000002030831647048312A2002215A215A1
:1008FE001A2003201030FD00FD0B832C0000203049
:10090E0047048312A200A2151A200320A42003304C
:10091E00FD00FD0B902C2830D000FB210630D000BE
:04092E00FB210800A1
:1009320083120313FB0173080319D62C7208FA0001
:10094200F2178E30F302F31FD92CF309F30A0830A1
:100952007302031CBC2CF300F10D7208F100F201CA
:1009620008307302031CBC2CF300F10DF101730873
:10097200031D0310C42C73080319C42C0310F20CBA
:10098200F10CF30BBF2C7B1B711CCE2C031CCE2C49
:10099200F10A0319F20AF21BE52CFA1FE82CF209FC
:1009A200F109F10A0319F20AE82CF201F101E82C2B
:1009B2007B14FB1FEB2CF201FA1FEB2CFF30F20031
:1009C200F100FA0DF20CEB2C0130FC00ED2C0030A2
:1009D200FC00ED2CFF30FC00FC080319F12CE8228E
:0A09E2007108F0007208F10008002F
:0E09EC00073083120313FD00FD0BFA2C0800E8
:1009FA008312031337088316C80083123808831634
:100A0A00C900831239088316CA0083123A0883166A
:100A1A00CB0083128C118316911583128C193D2DEC
:100A2A003708380439043A0403193C2D8316480858
:100A3A0049044A044B04031D322D2808840003305C
:100A4A008000840A26088312EE0083162708831280
:100A5A00EF0013208A110A123D2D01308316031369
:100A6A00C802031CC902031CCA02031CCB02122DB2
:100A7A000313831213088316C70083122108003A4E
:100A8A00031D4A2D831691164C2D8316911283123B
:100A9A008C1183161116831237088316C800831225
:100AAA0038088316C900831239088316CA008312CC
:100ABA003A088316CB0083128C198B2D3708380419
:100ACA0039043A0403198A2D8316480849044A044A
:100ADA004B04031D802D2808840003308000840AFB
:100AEA0026088312EE00831627088312EF001320CC
:100AFA008A110A128B2D013083160313C802031CB4
:100B0A00C902031CCA02031CCB02602D83160313FD
:060B1A004708F00008008E
:0E0B2000831203136F088A006E08820008001B
:100B2E00831203137408003A031DB22D7508003AA0
:100B3E00031DB22D7608003A031DB22D7708003A38
:100B4E00031DB22DFF30F000FF30F1007F30F200B8
:100B5E00FF30F3004D2E8312031377080319412E35
:100B6E0073080319442E720876068039FA00F217BC
:100B7E00F617A0017208F8007108FC007008FD005D
:100B8E007408FD027508031C750FFC027608031C21
:100B9E00760FF802F801FC01FD01031CDD2D031098
:100BAE00F20CF10CF00CF80C0130A0007708F302F7
:100BBE00031CE72D7E302007F3070318472EEC2D7C
:100BCE007E302007F307031C4A2E1830FA07FD0D5E
:100BDE00FC0DF80DF00DF10DF20DA00D7408F002E4
:100BEE007508031C750FF1027608031C760FF202CE
:100BFE00760DA004201C052E7D14102E7408F0070F
:100C0E0075080318750FF10776080318760AF207B0
:100C1E007D10FA031F307A05031DEE2D7B1B7D1C04
:100C2E00372E0310F00DF10DF20DA00D7408F00229
:100C3E007508031C750FF1027608031C760FF2027D
:100C4E00760D20040139FD070318FC0A0319F80A72
:100C5E00031D372EF80CFC0CFD0CF30A0319472E5E
:100C6E00FA1FF8137808F2007C08F1007D08F000F6
:100C7E0000304C2E013012224C2E02305B214C2EB5
:0E0C8E00043066214C2E0830092100000800B9
:100C9C00A820032090308312A2001A200320831274
:100CAC00A2011A2003202824032091308312A200D1
:100CBC001A20032001308312A100FD247008B50016
:100CCC00B6013508B600B5018312A101FD247008E8
:100CDC00B5040030B604A4203508F0003608F10045
:100CEC0012240030F4000030F5000030F60087309C
:060CFC00F7009725080037
:100D020067240C30D000FB210130D000FB210130E0
:100D1200C700C8012D30C900AE230230C700C80188
:100D22002330C900AE230130C7000A30C80035089D
:100D3200C900AE230230C7000A30C8003608C90015
:040D4200AE230800D4
:100D460090258A110A128000840AEE0A0319EF0A16
:080D5600F003031DA32E0800A9
:100D5E00831203139F010E3083169F000A309300F7
:040D6E005C230800FA
:100D7200831203139F01C0309F043B09F0007008E7
:100D820083169F051F179F173508F000F00D70108E
:100D9200F00D7010F00D7010700883129F041F1474
:100DA200F6241F151F1DD72E0000D32E1F101E085C
:100DB200F100F00183161E08F0040030F10408006F
:100DC2007427AF26043083169F00051485144E261F
:100DD2007008EA007108EB007208EC007308ED007D
:100DE2008316B501B92670088312C0007108C100CC
:100DF20012240030F4000030F5007A30F60087301B
:100E0200F700FB220030F400C030F5007F30F6001E
:100E12008830F70097257008BC007108BD00720881
:100E2200BE007308BF006A088316B50083126B0800
:100E32008316B60083126C088316B70083126D08FE
:100E42008316B8005630B9000230BA008A15002065
:100E52008A1183123C088316B50083123D0883165B
:100E6200B60083123E088316B70083123F0883162A
:100E7200B8004230B9000230BA008A1500208A1147
:100E82005630B5004230B60081260330FB008A306E
:100E9200FC005530FD00FD0B4C2FFC0B4C2FFB0BC7
:0A0EA2004C2F00000000E82E552F31
:100EE80023308400193083120313F0005B30EE00C6
:080EF8000730EF00A3260800FB
:10100000831603133A08013EBD00BE010318BE0A51
:10101000BB01BC01F401F501F601F7013508F00050
:101020003608F1003708F2003808F3008A11C223AD
:101030008A15013003180030F000700803192E28BB
:101040008316390884002D308000B90A0030B506B7
:101050000030B6068030B7060030B8068316350873
:10106000F4003608F5003708F6003808F700F001FC
:10107000F101F201F3018A11C2238A15013003182C
:101080000030F0007008031982280030F4000030AE
:10109000F5000030F6007F30F70083163508F000C9
:1010A0003608F1003708F2003808F3008A11C2232D
:1010B0008A15013003180030F000700803198228E7
:1010C00083163508F0003608F1003708F2003808BA
:1010D000F3000030F4000030F5002030F6008230DC
:1010E000F7008A11FB228A1570088316B500710873
:1010F000B6007208B7007308B8000130BB02031CC9
:10110000BC03452883160030F4000030F500203081
:10111000F6008230F7003508F0003608F100370895
:10112000F2003808F3008A11C2238A150130031C2B
:101130000030F00070080319BE280030F4000030C1
:10114000F5002030F6008230F70083163508F000F5
:101150003608F1003708F2003808F3008A119725A5
:101160008A1570088316B5007108B6007208B700BA
:101170007308B800BB0A0319BC0A822883163B080F
:10118000BD073C080318013EBE070130BF00003018
:10119000C0000030C3000030C4000030C5007F3004
:1011A000C60080304006F00080303E067002031D0D
:1011B000DB283D083F020318FD280030F400003012
:1011C000F5002030F6008230F7004308F0004408B4
:1011D000F1004508F2004608F3008A1197258A15A8
:1011E00070088316C3007108C4007208C500730834
:1011F000C600BF0A0319C00AD1280030F40000302D
:10120000F5000030F6008030F7004308F000440895
:10121000F1004508F2004608F3008A1197258A1567
:1012200083163508F4003608F5003708F60038084C
:10123000F7008A1148228A1570088316B5007108D4
:10124000B6007208B7007308B8000030F400003030
:10125000F5002030F6008230F7008A11C2238A158B
:101260000130031C0030F0007008031943290030DE
:101270008316B5000030B6000030B7007F30B800EC
:10128000BB0A0319BC0A831680303C06F00080308C
:101290007002031D4D2900303B02031884293908D0
:1012A000840030308000B90A390884002E30800074
:1012B000B90A80303E06F00080307002031D6229BA
:1012C00000303D0203186A293D08BB02031CBC0321
:1012D0003E08BC02FF30BF00FF30C00080303C063B
:1012E000F000803040067002031D78293F083B0261
:1012F000031884293908840030308000B90A01308D
:10130000BF02031CC0036E29BF01C001803040062C
:10131000F00080303E067002031D90293D083F0218
:101320000318FA293508F0003608F1003708F200F2
:101330003808F3008A1199248A1570088316C100B1
:101340007108C2003030F00739088400700880004E
:10135000B90A40083C06031DAF293B083F06031DA0
:10136000B629390884002E308000B90A4108F000FF
:101370004208F1008A1190238A1570088316C30071
:101380007108C4007208C5007308C6007008F40034
:101390007108F5007208F6007308F7003508F000D0
:1013A0003608F1003708F2003808F3008A11F522F8
:1013B0008A1570088316B5007108B6007208B70068
:1013C0007308B8000030F4000030F5002030F6005B
:1013D0008230F7008A11FB228A1570088316B50047
:1013E0007108B6007208B7007308B800BF0A031985
:0C13F000C00A862939088400800108002A
:100EB600543445344D3450344C344D343334353455
:040EC6003A34003486
:100ECA00543445344D3450344C344D34373435343D
:040EDA003A34003472
:080EDE0000340034003400343C
:020EE6000F34C7
:02400E004A2F37
:00000001FF
